:020000040800F2
:1000000050720020C56E05082D6D05082F6D05087E
:10001000316D0508336D0508356D050800000000D9
:10002000000000000000000000000000D5CA040825
:10003000376D0508000000007DCA0408396D050809
:10004000016F0508056F0508096F05080D6F0508A4
:10005000116F0508156F0508196F05081D6F050854
:10006000216F0508256F0508296F05082D6F050804
:10007000316F0508356F0508396F05083D6F0508B4
:10008000416F0508456F0508496F05084D6F050864
:10009000516F0508556F0508596F05085D6F050814
:1000A000616F0508656F0508696F05086D6F0508C4
:1000B000716F0508756F0508796F05087D6F050874
:1000C000816F0508856F0508896F05088D6F050824
:1000D000916F0508956F0508996F05089D6F0508D4
:1000E000A16F0508A56F0508A96F0508AD6F050884
:1000F000B16F0508B56F0508B96F0508BD6F050834
:10010000C16F0508C56F0508C96F0508CD6F0508E3
:10011000D16F0508D56F0508D96F0508DD6F050893
:10012000E16F0508E56F0508E96F0508ED6F050843
:10013000F16F0508F56F0508F96F0508FD6F0508F3
:10014000017005080570050809700508596D050856
:100150000D7005081170050815700508197005085F
:100160001D7005082170050825700508297005080F
:100170002D70050831700508357005080000000075
:10018000397005083D7005080CFF50CFF40BFF30A7
:10019000AFF30AFF209FF209FF108FF007FF007FE7
:1001A000F006FE006FE005FD002750000000000093
:1001B000028600DFF60FFF806FC13FF102FF23FFD1
:1001C000102FF22FF001FF12FF001FF12FF001FF9F
:1001D00011FF000FF01FF000FF00980009900000D1
:1001E00000AF500006FA000000000BF300007F8013
:1001F00000000000DF100009F6000000000FF00012
:1002000000BF4000000001FD00000DF200005FFF94
:10021000FFFFFFFFFFFFFE05FFFFFFFFFFFFFFFFE9
:10022000E000008F800004FC0000000009F60000E0
:100230005FA000000000BF400007F8000000000DB4
:10024000F200009F6000000000FF00000AF40000C0
:1002500000001FE00000CF300004FFFFFFFFFFFFA2
:10026000FFFFF04FFFFFFFFFFFFFFFFF000007F85A
:1002700000002FD0000000009F600004FB00000081
:10028000000BF400006F9000000000DF200008F772
:10029000000000000FF00000AF5000000000000F51
:1002A000C00000000000000FC00000000000000FB0
:1002B000C000000000018CEFFFD94000006FFFFF7D
:1002C000FFFFFD2005FFFC8FD7AEFF100EFF500F84
:1002D000C00059004FF9000FC00000005FF6000F8A
:1002E000C00000004FFA000FC00000000EFF800F9A
:1002F000C000000006FFFFBFC0000000005EFFFF5F
:10030000FE94000000016BFFFFFFC3000000001F10
:10031000EDFFFF300000000FC03CFFC00000000FE9
:10032000C000DFF10000000FC0008FF30400000FD9
:10033000C000BFF15FA2000FC005FFC0AFFFC87FC4
:10034000D8CFFF3009FFFFFFFFFFE4000017BEFF1B
:10035000FFC700000000000FC00000000000000FF9
:10036000C00000000000000FC0000000007DFE8003
:1003700000000000DF30000AFD9CFC00000009F9CD
:1003800000004FB0008F7000004FD00000BF300061
:100390000FD00000DF300000EF00000CF10009F981
:1003A000000000FE00000AF1004FD0000000EF0046
:1003B000000CF100EF30000000BF30000FD009F852
:1003C000000000004FB0008F704FD0000000000A06
:1003D000FD9CFC00EF3005885000007DFE8009F890
:1003E00001CFFFFC10000000004FD00BF9118FB0BF
:1003F00000000000EF302FC0000CF300000009F8EF
:10040000006F600006F70000004FD0008F4000042E
:10041000F8000001EF30007F500005F800000AF8F6
:1004200000004F800008F500004FD000000EE100F2
:100430001EE00001EF30000004FE87EF40000AF8E4
:10044000000000003BFFB300000019DFFD8000004A
:10045000000003FFFFFFFD000000000DFE4005FF50
:10046000800000003FF500009FC00000004FF30037
:10047000008FC00000002FF70001EF800000000C8B
:10048000FF202DFE1000000003FFD8FFE300000056
:1004900000005FFFFB100000000003CFFFE1000041
:1004A0000000006FFE8FFD1000240006FFA105FF75
:1004B000D1009FB02FFB00005FFD10DF708FF200B6
:1004C0000005FFD6FF30BFE00000005FFFFB00AF7C
:1004D000F100000005FFF5006FFA00000009FFFDC4
:1004E000100DFFE75459EFFBFFD101BFFFFFFFFEE7
:1004F000605FF800049DFFEB600005B000000000A5
:1005000000000000003FF13FF12FF02FF02FF01F0F
:10051000F01FF009800004FF4000CFC0004FF5003D
:100520000BFE0000FF90005FF40009FF0000CFD039
:10053000000FFA0002FF70003FF60004FF60005F4A
:10054000F50005FF50004FF60003FF60002FF70095
:1005500000FFA0000CFD00009FF00005FF40000F11
:10056000F90000AFE00004FF50000CFC00004FF465
:100570000DFB00006FF30000DFB00007FF20002F2D
:10058000F70000DFC00008FF00006FF30003FF600A
:10059000000FF90000FFA0000EFB0000DFC0000DFF
:1005A000FC0000EFB0000FFA0000FF90003FF600E3
:1005B00006FF30008FF0000DFC0002FF70007FF29C
:1005C000000DFB0006FF3000DFB00000003F6000C0
:1005D000000003F600001E803F607E33DFE9FADF93
:1005E000E5007EFFFF910001AFFFC20007EFEFEFD4
:1005F000F913FE63F64DF606103F6006000003F6A1
:10060000000000001730000000000044100000004F
:100610000000FF500000000000FF5000000000003C
:10062000FF500000000000FF500000033333FF7351
:1006300033312FFFFFFFFFFFF62FFFFFFFFFFFF616
:10064000000000FF500000000000FF50000000000C
:1006500000FF500000000000FF500000000000FFFD
:100660005000001AB408FFE09FFF02DFC00AF60046
:10067000EF102FC006F6002555555506FFFFFFF277
:100680006FFFFFFF201AC409FFE0AFFF02DE60002A
:100690000000000586000000000EF8000000003F8A
:1006A000F3000000009FD000000000EF7000000089
:1006B00004FF200000000AFC000000000FF700000B
:1006C00000005FF100000000AFC000000000FF600C
:1006D00000000006FF100000000BFB000000001FE0
:1006E000F5000000006FF000000000CFA000000047
:1006F00002FF5000000007FE000000000DF900009E
:1007000000002FF4000000008FE000000000DF90E8
:1007100000000003FF3000000009FD000000000E93
:10072000F8000000004FF2000000009FD000000021
:1007300000000007CFFEB5000000004EFFFFFFFBEA
:100740001000004FFFD98AFFFD10001EFF7000014E
:10075000BFFA0008FF80000000DFF300EFE00000B8
:100760000004FF903FF9000000000EFE07FF50005C
:10077000000000BFF19FF30000000008FF3AFF20D7
:10078000000000007FF4AFF20000000007FF49FF07
:1007900030000000008FF37FF5000000000BFF1316
:1007A000FF9000000000EFE00EFE000000004FF997
:1007B000008FF80000000DFF3001EFF700001BFF75
:1007C000A00004FFFD98AFFFD1000004EFFFFFFF82
:1007D000C1000000007CFFEB500000CFFFFFF6CF10
:1007E000FFFFF65777AFF600005FF600005FF600F8
:1007F000005FF600005FF600005FF600005FF600A5
:10080000005FF600005FF600005FF600005FF60094
:10081000005FF600005FF600005FF600005FF60084
:10082000005FF600005FF600005FF600038CEFFC4F
:1008300082000002BFFFFFFFFF60002EFFFB98AEAB
:10084000FFF5002DF91000008FFE00016000000090
:100850000CFF20000000000008FF40000000000026
:1008600009FF2000000000000EFE00000000000054
:100870007FF9000000000004FFE100000000003FDD
:10088000FF400000000004FFF400000000004FFFE4
:10089000400000000004FFF400000000004FFF4093
:1008A0000000000005FFF300000000005FFF3000C3
:1008B00000000005FFFA77777777700FFFFFFFFFE3
:1008C000FFFFF20FFFFFFFFFFFFFF20FFFFFFFFF32
:1008D000FFFF00FFFFFFFFFFFFF00677777777DF6F
:1008E000F700000000006FFA00000000003FFD006C
:1008F000000000001EFF20000000000CFF40000070
:10090000000009FF700000000005FFF96100000011
:10091000007FFFFFF70000000388ADFFF900000033
:10092000000004FFF3000000000006FF800000004C
:1009300000001FFB000000000001FFA050000000AD
:10094000006FF83FC40000005FFF2AFFFEA889DFA8
:10095000FF7009FFFFFFFFFF7000016ADFFEC72085
:10096000000000000004FFB00000000000002EFEA8
:1009700010000000000000CFF3000000000000099C
:10098000FF700000000000005FFA0000000000009F
:1009900002FFD00000000000000DFF30000000004A
:1009A0000000AFF600000000000007FFA0000AB73B
:1009B0000000003FFD00000FFA000001EFF2000010
:1009C0000FFA00000BFF5000000FFA00008FFD66C9
:1009D00066666FFC6662EFFFFFFFFFFFFFFFF6FF3B
:1009E000FFFFFFFFFFFFFFF600000000000FFA000F
:1009F0000000000000000FFA000000000000000FDF
:100A0000FA000000000000000FFA000000000000E3
:100A1000000FFA0000001FFFFFFFFFFF00003FFF75
:100A2000FFFFFFFF00004FF97777777700006FF344
:100A30000000000000008FF10000000000009FF0A7
:100A4000000000000000BFE0000000000000CFD068
:100A5000000000000000EFFFFFEC94000000FFFF2B
:100A6000FFFFFFC200007777779CFFFE10000000B9
:100A700000002CFF90000000000001FFE0000000DB
:100A8000000000CFF0000000000000CFF0031000D5
:100A9000000001FFD00DE60000002CFF705FFFFB9F
:100AA000989BFFFD0005DFFFFFFFFFB10000049CE6
:100AB000EFED9400000000028CEFFDA4000001AFF8
:100AC000FFFFFFFF40001DFFFB8689ED0000CFFB0D
:100AD000200000020006FFB000000000000DFF1023
:100AE00000000000002FFA0000000000006FF60078
:100AF00000000000008FF305AEFED82000AFF3BF6A
:100B0000FFFFFFF700AFFDFF9546AFFF609FFFD1EE
:100B1000000004FFE07FFF300000008FF54FFE0073
:100B20000000004FF71FFE000000004FF60AFF30E4
:100B30000000008FF402FFD1000004FFD0007FFF0F
:100B40009545AFFF400006FFFFFFFFE400000017E0
:100B5000CEFEC710002FFFFFFFFFFFFFFA2FFFFFA2
:100B6000FFFFFFFFF92FFB77777777CFF52FF8009F
:100B7000000000FFE02FF800000006FF702FF800D3
:100B800000000DFF1000000000004FF90000000001
:100B90000000CFF2000000000003FFB000000000E2
:100BA000000AFF4000000000001FFD0000000000E0
:100BB000008FF6000000000000EFE00000000000E1
:100BC00006FF8000000000000DFF10000000000084
:100BD0004FFA000000000000BFF300000000000218
:100BE000FFC0000000000009FF5000000000001FCF
:100BF000FE0000000000005ADFFDA60000003DFFDF
:100C0000FFFFFFD30002EFFD7557DFFF200AFF80D3
:100C1000000008FFA00EFE00000000DFF00FFB0048
:100C2000000000AFF00FFD00000000CFF00AFF5001
:100C3000000005FFA001EFFA4225AFFE10002CFFD7
:100C4000FFFFFFC200008FFFFFFFFFF8000BFFC593
:100C500020026DFFB05FFB00000000AFF5AFF200B7
:100C60000000002FFABFF0000000000FFC9FF4000E
:100C70000000004FFA4FFD20000002DFF50AFFFAE6
:100C80006456AFFFB0009FFFFFFFFFF90000027C3A
:100C9000EFFEC7200000005BEFED930000002CFF8B
:100CA000FFFFFF900001DFFC6458DFFA0009FF80BE
:100CB00000000AFF600FFD00000000EFE02FF800C9
:100CC0000000009FF52FF8000000009FF90FFD00C5
:100CD000000000EFFC0AFF8000000AFFFD02FFFD9C
:100CE0007558DFEEFE003EFFFFFFFE3EFE00007C7B
:100CF000EFEB600FFD0000000000002FFA00000085
:100D00000000006FF7000000000000CFF1000000BD
:100D1000000007FFA000110000008FFE10008FA848
:100D200067AEFFF30000FFFFFFFFFC20000039CF9C
:100D3000FFD94000002DE60AFFF09FFE01AC400005
:100D400000000000000000000000000000000000A3
:100D500001AC409FFE0AFFF02DE6002DE60AFFF0F1
:100D60009FFE01AC400000000000000000000000F9
:100D700000000000000001AB408FFE09FFF02DFCD9
:100D800000AF600EF102FC006F6000000000000088
:100D900003960000000016DFF60000003AFFFFB2E5
:100DA00000017DFFFD710004AFFFFA3000002FFF4E
:100DB000C6000000002FFE61000000000AFFFFA433
:100DC0000000000016DFFFD710000000039FFFFBAC
:100DD00050000000006CFFF6000000000039F60033
:100DE0000000000000012FFFFFFFFFFFF62FFFFFB5
:100DF000FFFFFFF6033333333333310000000000CD
:100E000000000000000000000000000000000000E2
:100E1000033333333333312FFFFFFFFFFFF62FFF51
:100E2000FFFFFFFFF61B5000000000002FFE8200B6
:100E300000000009EFFFC50000000005BFFFE9202A
:100E4000000000028EFFFC60000000004AFFF60078
:100E500000000004BFF600000028EFFFC300005CA4
:100E6000FFFE8200039FFFFB5000001FFFE82000F1
:100E700000002FB50000000000010000000000008D
:100E800000049DEFFC9200002BFFFFFFFFF8003EE7
:100E9000FFE9768DFFF604EF70000007FFE00150D8
:100EA0000000000DFF100000000000BFF100000076
:100EB00000000EFE000000000008FF80000000009F
:100EC00008FFC00000000009FFC00000000008FF8C
:100ED000B00000000002FFD000000000007FF6001C
:100EE0000000000005AA2000000000000000000033
:100EF000000000000000000000000018600000007A
:100F000000000DFF600000000000FFF8000000007E
:100F10000006ED1000000000000027BDFFFEB83005
:100F200000000000000004CFFFFEDEFFFFC5000050
:100F30000000000AFFD720000026CFFB10000000B1
:100F40001DFE5000000000004DFD1000001DFC10B3
:100F50000000000000000AFD10000AFC000018DF7D
:100F6000FD810FF80BFA0003FF20004FFFFFFFE4A5
:100F7000FF801EF300BF80004FFF8335BFFFF800E6
:100F80006FB01FF1000EFE2000006FFF8000EF1514
:100F9000FC0005FF40000000AFF8000AF48F80005D
:100FA000AFD000000003FF80007F79F7000DFA004A
:100FB0000000000FF80005F8AF6000EF900000009F
:100FC00000EF80004F99F7000DFA000000000FF8C5
:100FD0000005F87F9000AFD000000003FF80007F85
:100FE00075FC0005FF40000000AFF8000AF41FF197
:100FF000000EFE2000006FFF9001FF00BF80004F39
:10100000FF8324AFFCFF53CF8003FF20004FFFFF7F
:10101000FFE44FFFFFC0000AFC000018CFFD810075
:101020005DFE8000000DFC100000000000000000CC
:101030000000001DFE500000000000000000000045
:10104000001AFFD730000037C00000000000000485
:10105000CFFFFEEEFFFF400000000000000037BEA3
:10106000FFFDA610000000000000000006FFD000F9
:10107000000000000000000DFFF400000000000070
:1010800000004FFFFB0000000000000000BFE9FF70
:101090002000000000000002FF81FFA0000000000F
:1010A000000009FF10AFF10000000000001FFA006F
:1010B0003FF80000000000007FF3000CFE0000007D
:1010C000000000EFD00006FF600000000005FF6098
:1010D0000000EFD0000000000DFE0000008FF400C3
:1010E0000000004FF80000001FFB00000000BFF5EB
:1010F0003333333CFF30000002FFFFFFFFFFFFFFF1
:10110000A0000009FFFFFFFFFFFFFFF100001FFC31
:1011100000000000005FF800007FF5000000000004
:101120000EFE0000EFE0000000000008FF6005FF79
:1011300080000000000001FFD00CFF100000000044
:101140000000AFF41FFFFFFFFFFDA500001FFFFF22
:10115000FFFFFFFFD2001FFC44444469FFFD001F56
:10116000FB000000001CFF601FFB0000000003FFED
:10117000A01FFB0000000001FFB01FFB00000000EB
:1011800002FF901FFB0000000009FF401FFB000052
:101190000014BFFB001FFFFFFFFFFFFFA0001FFFAA
:1011A000FFFFFFFFFFE7001FFC444444458EFFA004
:1011B0001FFB0000000000CFF41FFB000000000038
:1011C0003FF91FFB00000000000FFC1FFB000000A8
:1011D00000003FFB1FFB0000000000BFF71FFC44A6
:1011E0004444458EFFE11FFFFFFFFFFFFFFD201F6F
:1011F000FFFFFFFFFFDA500000000038CEFEDA509C
:1012000000000002BFFFFFFFFFE5000005FFFFDA5F
:1012100089BFFFF80005FFFB30000006EFB001FFBB
:10122000F800000000028000AFFA0000000000009B
:10123000001FFF0000000000000005FF90000000FC
:10124000000000008FF5000000000000000AFF30E1
:1012500000000000000000AFF300000000000000EC
:1012600008FF50000000000000005FF900000000CF
:1012700000000001FFF0000000000000000AFFA0D5
:10128000000000000000001FFF8000000000290097
:10129000005FFFB30000006EFB00005FFFFDA88A47
:1012A000FFFF8000002CFFFFFFFFFE500000000347
:1012B0008CEFEDA500001FFFFFFFFFEC9400000086
:1012C0001FFFFFFFFFFFFFD400001FFD7777779C14
:1012D000FFFF80001FFB0000000029FFF8001FFB3C
:1012E00000000000005FFF401FFB00000000000640
:1012F000FFC01FFB000000000000DFF31FFB000029
:10130000000000006FF71FFB0000000000003FFA24
:101310001FFB0000000000001FFC1FFB000000007E
:1013200000001FFC1FFB0000000000003FFA1FFB35
:101330000000000000006FF71FFB0000000000002D
:10134000DFF31FFB000000000006FFC01FFB0000D2
:101350000000004FFF401FFB0000000019FFF800D5
:101360001FFD7777779CFFFF80001FFFFFFFFFFFC8
:10137000FFD400001FFFFFFFFFEC940000001FFFE1
:10138000FFFFFFFFFFC01FFFFFFFFFFFFFC01FFDAD
:101390007777777777501FFB0000000000001FFB76
:1013A0000000000000001FFB0000000000001FFB09
:1013B0000000000000001FFB0000000000001FFBF9
:1013C0000000000000001FFFFFFFFFFFF9001FFFEC
:1013D000FFFFFFFFF9001FFD6666666663001FFBE7
:1013E0000000000000001FFB0000000000001FFBC9
:1013F0000000000000001FFB0000000000001FFBB9
:101400000000000000001FFD7777777777711FFFDE
:10141000FFFFFFFFFFF21FFFFFFFFFFFFFF21FFFB6
:10142000FFFFFFFFFFC1FFFFFFFFFFFFFC1FFD7777
:101430007777777751FFB000000000001FFB0000B6
:1014400000000001FFB000000000001FFB000000D2
:10145000000001FFB000000000001FFB00000000C2
:101460000001FFD666666666301FFFFFFFFFFFF9CB
:1014700001FFFFFFFFFFFF901FFB000000000001C6
:10148000FFB000000000001FFB000000000001FF93
:10149000B000000000001FFB000000000001FFB0D2
:1014A00000000000001FFB000000000001FFB00072
:1014B0000000000000000038CEFFDA6100000002EA
:1014C000BFFFFFFFFFF7000005FFFFDA88AEFFFB5D
:1014D0000004FFFC30000004DFD101FFF800000031
:1014E000000081009FFA000000000000001FFF00C4
:1014F00000000000000005FF900000000000000058
:101500008FF5000000000000000AFF30000000001E
:10151000000110AFF3000000000007FF38FF50008B
:10152000000000007FF35FF9000000000007FF31BA
:10153000FFF000000000007FF309FFA000000000A2
:1015400007FF301FFF80000000007FF3004FFFC344
:101550000000003CFF30005FFFFDA889DFFFE100D5
:10156000002BFFFFFFFFFF91000000038CEFFDA6A3
:1015700010001FFB00000000000FFC1FFB0000001C
:1015800000000FFC1FFB00000000000FFC1FFB0011
:10159000000000000FFC1FFB00000000000FFC1FFC
:1015A000FB00000000000FFC1FFB00000000000F0C
:1015B000FC1FFB00000000000FFC1FFB00000000F0
:1015C000000FFC1FFFFFFFFFFFFFFFFC1FFFFFFFE0
:1015D000FFFFFFFFFC1FFD77777777777FFC1FFB0F
:1015E00000000000000FFC1FFB00000000000FFCCB
:1015F0001FFB00000000000FFC1FFB0000000000AC
:101600000FFC1FFB00000000000FFC1FFB00000090
:1016100000000FFC1FFB00000000000FFC1FFB0080
:10162000000000000FFC1FFB1FFB1FFB1FFB1FFB2D
:101630001FFB1FFB1FFB1FFB1FFB1FFB1FFB1FFBDA
:101640001FFB1FFB1FFB1FFB1FFB1FFB1FFB004F95
:10165000FFFFFFFF9004FFFFFFFFF9001777777888
:10166000FF90000000003FF90000000003FF900021
:101670000000003FF90000000003FF9000000000A0
:101680003FF90000000003FF90000000003FF90058
:1016900000000003FF90000000003FF90000000080
:1016A00003FF90000000003FF90000000004FF80ED
:1016B000060000008FF60AF800001FFF11DFFD860C
:1016C0008EFFA002CFFFFFFFC000005BEFEB6000CA
:1016D0001FFB0000000002EFE201FFB0000000026B
:1016E000EFF3001FFB00000001EFF40001FFB0006A
:1016F0000001DFF500001FFB000001DFF600000124
:10170000FFB00000CFF70000001FFB0000CFF80083
:10171000000001FFB000BFF9000000001FFB00BF88
:10172000FA0000000001FFB0AFFF90000000001FB2
:10173000FB9FFFFF6000000001FFFFFE8FFF3000F6
:1017400000001FFFFE208FFE10000001FFFE2000A2
:10175000BFFC0000001FFE200000CFFA000001FFC8
:10176000B0000001EFF700001FFB00000003FFF4D2
:101770000001FFB000000004FFE2001FFB000000BA
:101780000007FFD001FFB00000000009FFB01FFB01
:10179000000000000001FFB000000000001FFB007F
:1017A0000000000001FFB000000000001FFB00006F
:1017B00000000001FFB000000000001FFB0000005F
:1017C000000001FFB000000000001FFB000000004F
:1017D0000001FFB000000000001FFB00000000003F
:1017E00001FFB000000000001FFB0000000000012E
:1017F000FFB000000000001FFB000000000001FF20
:10180000B000000000001FFB000000000001FFD737
:1018100077777777721FFFFFFFFFFFFF51FFFFFF13
:10182000FFFFFFF51FF8000000000000000CFC1F88
:10183000FF200000000000006FFC1FFFA000000060
:10184000000000EFFC1FFFF4000000000008FFFC98
:101850001FFFFD00000000002FFFFC1FFEFF6000C7
:10186000000000AFFFFC1FFACFE100000004FF7E84
:10187000FC1FFA3FF90000000DFD0EFC1FFA09FFE6
:101880002000006FF40EFC1FFA01FFB00000EFB063
:101890000EFC1FFA007FF50008FF200EFC1FFA0067
:1018A0000DFE002FF8000EFC1FFA0004FF70BFE0D1
:1018B000000EFC1FFA0000AFF6FF60000EFC1FFADE
:1018C00000002FFFFC00000EFC1FFA000008FFF3D1
:1018D00000000EFC1FFA000000EFA000000EFC1F2D
:1018E000FA000000491000000EFC1FFA0000000082
:1018F0000000000EFC1FFA000000000000000EFCBB
:101900001FFA00000000000FFC1FFF600000000035
:101910000FFC1FFFF3000000000FFC1FFFFE100074
:1019200000000FFC1FFFFFC00000000FFC1FFCDFCA
:10193000F90000000FFC1FFB2FFF5000000FFC1FE1
:10194000FB05FFF200000FFC1FFB009FFD10000FC6
:10195000FC1FFB000CFFB0000FFC1FFB0001EFF8A9
:10196000000FFC1FFB00003FFF400FFC1FFB0000AF
:1019700006FFF20FFC1FFB000000AFFD0FFC1FFB7A
:101980000000000CFFAFFC1FFB00000002EFFFFC9B
:101990001FFB000000004FFFFC1FFB0000000007C2
:1019A000FFFC1FFB0000000000AFFC1FFB0000005D
:1019B00000000DFC00000038CEFFDA6000000000DF
:1019C000002BFFFFFFFFFE7000000005FFFFDA891C
:1019D000BFFFFB1000004FFFB30000006FFFC0000F
:1019E00001EFF80000000002DFF90009FFA000008D
:1019F0000000002FFF201FFF00000000000007FF75
:101A0000905FF900000000000001FFD08FF500009A
:101A10000000000000DFF0AFF30000000000000055
:101A2000BFF2AFF300000000000000BFF28FF5002E
:101A3000000000000000DFF05FF90000000000007F
:101A400001FFD01FFF00000000000007FF9009FF0A
:101A5000A000000000002FFF2001EFF800000000B0
:101A600002DFF900004FFFB30000006FFFC000006D
:101A700005FFFFDA89BFFFFC100000002BFFFFFF0E
:101A8000FFFF70000000000038CEFFDA60000000A9
:101A90001FFFFFFFFFDA500001FFFFFFFFFFFFD333
:101AA000001FFD777778AFFFF301FFB00000000A59
:101AB000FFD01FFB000000000BFF51FFB000000033
:101AC000004FF91FFB0000000001FFB1FFB0000054
:101AD00000001FFB1FFB0000000004FF91FFB0008F
:101AE000000000BFF51FFB000000009FFD01FFD7B5
:101AF00077777AFFFF301FFFFFFFFFFFFD3001FF09
:101B0000FFFFFFFDA500001FFB000000000000011B
:101B1000FFB00000000000001FFB000000000000FC
:101B200001FFB00000000000001FFB0000000000EB
:101B30000001FFB000000000000000000028CEFF00
:101B4000DA60000000000002BFFFFFFFFFE70000B7
:101B5000000004FFFFDA89BFFFFB10000004FFFC58
:101B600030000007FFFC000001EFF8000000000259
:101B7000DFF800009FFA000000000002FFF2000FF3
:101B8000FF00000000000008FF8005FF900000003B
:101B90000000001FFD008FF500000000000000DFC6
:101BA000F009FF300000000000000BFF20AFF30041
:101BB000000000000000AFF108FF5000000000002E
:101BC000000CFF005FF800000000000001FFD001E2
:101BD000FFE00000000000007FF8000AFF90000016
:101BE0000000002FFF20002FFF70000000001DFFED
:101BF0009000005FFFA20000005EFFC00000006FC9
:101C0000FFFC8779EFFFC1000000003DFFFFFFFFF1
:101C1000FF70000000000005ADFFFFD610000000BF
:101C200000000000007FFF40000093000000000063
:101C3000006FFFA546DFD00000000000004EFFFF50
:101C4000FFF40000000000000006CEFD81001FFF31
:101C5000FFFFFFDA5000001FFFFFFFFFFFFD300016
:101C60001FFD777778AFFFF3001FFB00000000AF88
:101C7000FD001FFB000000000BFF501FFB000000D9
:101C80000004FF901FFB0000000001FFB01FFB00DD
:101C900000000001FFB01FFB0000000004FF901FC8
:101CA000FB000000000BFF501FFB000000009FFE28
:101CB000001FFD6666679EFFF3001FFFFFFFFFFF2B
:101CC000FD30001FFFFFFFFFFFB000001FFB000003
:101CD00000CFF300001FFB0000002FFE00001FFBE1
:101CE00000000006FFA0001FFB00000000BFF50081
:101CF0001FFB000000001EFE101FFB000000000480
:101D0000FFB000006BDFFEC83000005EFFFFFFFF8A
:101D1000FC2004FFFC8667BFFF100DFF5000000091
:101D200069003FF90000000000005FF600000000BD
:101D300000003FFA0000000000000EFF80000000DD
:101D4000000006FFFFA620000000005EFFFFFD94DC
:101D5000000000006BFFFFFFD300000000048CFFB9
:101D6000FF3000000000002BFFD00000000000004A
:101D7000CFF10000000000008FF30500000000001C
:101D8000AFF15FB400000006FFB0AFFFE97668DF97
:101D9000FF3007EFFFFFFFFFD30000059DEFEDA52C
:101DA0000000EFFFFFFFFFFFFFFF5EFFFFFFFFFFF2
:101DB000FFFFF56777778FFC77777720000002FFCA
:101DC000900000000000002FF90000000000000259
:101DD000FF900000000000002FF90000000000004C
:101DE00002FF900000000000002FF900000000003A
:101DF0000002FF900000000000002FF9000000002A
:101E0000000002FF900000000000002FF900000019
:101E100000000002FF900000000000002FF9000009
:101E20000000000002FF900000000000002FF900F9
:101E3000000000000002FF900000000000002FF9E9
:101E400000000000000002FF900000003FF90000C9
:101E50000000006FF53FF900000000006FF53FF94A
:101E600000000000006FF53FF900000000006FF572
:101E70003FF900000000006FF53FF900000000008E
:101E80006FF53FF900000000006FF53FF90000001A
:101E900000006FF53FF900000000006FF53FF9000A
:101EA000000000006FF53FF900000000006FF53FF3
:101EB000F900000000006FF52FFA00000000007F1D
:101EC000F40FFD0000000000AFF20CFF2000000046
:101ED00000EFE007FFA000000007FF9000EFF9000F
:101EE00000007FFF20004FFFEA88AEFFF5000003EF
:101EF000EFFFFFFFFE4000000006AEFFEB600000BA
:101F00000DFF30000000000001FFC06FFA0000006C
:101F10000000007FF500EFF100000000000EFE0061
:101F200008FF800000000005FF70001FFE00000099
:101F30000000CFF10000AFF5000000003FF9000005
:101F400003FFC00000000AFF2000000CFF3000006B
:101F500001FFB00000005FFA0000008FF5000000F4
:101F600000EFF100000EFE0000000008FF800006F8
:101F7000FF70000000001FFE0000DFF10000000005
:101F800000AFF5004FF9000000000003FFC00AFF9A
:101F90002000000000000CFF32FFB0000000000035
:101FA000005FFA8FF400000000000000EFFFFD006A
:101FB00000000000000007FFFF70000000000000AC
:101FC000001FFFF100000000000000009FF900006A
:101FD00000000EFE00000000009FF500000000035E
:101FE000FF709FF4000000000EFFA0000000008FB3
:101FF000F204FF9000000004FFFF000000000DFC51
:10200000000EFE000000009FFFF500000003FF70BF
:1020100000AFF30000000EFBFFA00000008FF200F5
:1020200004FF90000004FF4BFF0000000DFD0000C6
:102030000FFE0000009FF06FF5000002FF7000002F
:10204000AFF300000EFA01FFA000008FF2000005C0
:10205000FF800004FF400BFF00000DFD0000000F9B
:10206000FD0000AFE0006FF40002FF80000000AF51
:10207000F3000FFA0001FFA0008FF300000005FF3E
:102080008004FF40000BFF000DFD000000000FFD6D
:1020900000AFE000005FF402FF8000000000AFF23C
:1020A0000FF9000000FF907FF30000000005FF859E
:1020B000FF4000000BFE0DFD00000000000FFDAF13
:1020C000E00000005FF7FF800000000000BFFFF9A4
:1020D00000000000FFFFF3000000000005FFFF40CC
:1020E0000000000BFFFE0000000000001FFFE000EA
:1020F0000000005FFF90000000000000BFF900003A
:10210000000000FFF30000000CFF50000000006F13
:10211000F9002FFF200000002FFD00006FFC0000E1
:10212000000DFF300000BFF7000008FF7000000145
:10213000EFF30004FFB000000004FFD001EFE10066
:1021400000000009FFA0AFF500000000000DFFAF88
:10215000F90000000000002FFFFD0000000000005B
:10216000007FFF400000000000000CFFFA000000AC
:1021700000000008FFFFF6000000000004FFD2FF8F
:10218000F20000000001EFF206FFC000000000AF07
:10219000F7000AFF800000006FFB00001EFF4000F8
:1021A000002FFE1000003FFE10000DFF5000000049
:1021B0008FFA0009FFA000000000CFF604FFD00056
:1021C00000000002FFF20CFF300000000000DFE022
:1021D00003FFC00000000007FF50009FF600000052
:1021E000001FFB00001EFE00000000AFF200000612
:1021F000FF90000003FF80000000DFF200000DFEF2
:10220000000000003FFB00006FF5000000000AFF27
:102210005001EFC00000000001FFE009FF200000B6
:102220000000007FF83FF90000000000000DFFDF14
:10223000E000000000000003FFFF6000000000005D
:102240000000AFFC00000000000000005FF700008D
:102250000000000000005FF7000000000000000028
:102260005FF700000000000000005FF700000000C2
:10227000000000005FF700000000000000005FF7B2
:1022800000000000000000005FF7000000009FFF5A
:10229000FFFFFFFFFFFF39FFFFFFFFFFFFFFF347D8
:1022A0007777777777DFFB0000000000004FFE10A4
:1022B00000000000002FFF3000000000000DFF6054
:1022C00000000000000AFF90000000000007FFC0AF
:1022D000000000000004FFE2000000000001EFF435
:1022E000000000000000CFF70000000000009FFB8E
:1022F0000000000000006FFD0000000000003FFF34
:102300002000000000001EFF5000000000000BFF36
:1023100090000000000008FFC0000000000005FF62
:10232000F8777777777774CFFFFFFFFFFFFFFF9C8A
:10233000FFFFFFFFFFFFFFF91FFFFFC1FFFFFC1FB4
:10234000FB3321FFA0001FFA0001FFA0001FFA00CD
:1023500001FFA0001FFA0001FFA0001FFA0001FF0B
:10236000A0001FFA0001FFA0001FFA0001FFA0005B
:102370001FFA0001FFA0001FFA0001FFA0001FFAD2
:102380000001FFA0001FFA0001FFB3321FFFFFC1D1
:10239000FFFFFC07830000000000BFB0000000004A
:1023A00005FF10000000000FF60000000000AFC0A5
:1023B0000000000005FF10000000000FF700000003
:1023C0000000AFD00000000004FF20000000000E5D
:1023D000F800000000009FD00000000003FF300064
:1023E0000000000EF800000000008FE00000000078
:1023F00002FF40000000000DF900000000007FE037
:102400000000000002FF40000000000CFA00000085
:1024100000007FF00000000001FF50000000000BF2
:10242000FB00000000006FF10000000001FF6000F1
:102430000000000BFB00000000005FF10000000046
:1024400000FF607FFFFF67FFFFF61337FF60004F5D
:10245000F60004FF60004FF60004FF60004FF60036
:1024600004FF60004FF60004FF60004FF60004FF19
:1024700060004FF60004FF60004FF60004FF6000AC
:102480004FF60004FF60004FF60004FF60004FF6B7
:102490000004FF61337FF67FFFFF67FFFFF6000058
:1024A00007830000000005FFB000000000CFFF2000
:1024B0000000003FD7F90000000AF61FF0000001FD
:1024C000FF00AF6000008F9003FD00000EF2000DD2
:1024D000F40006FB00006FB000DF400000FF204F5B
:1024E000D0000009F90BF70000002FF0BBBBBBBB0D
:1024F000BBBBBBFFFFFFFFFFFFFF3887000006FFEE
:10250000B000002DFC100000AFD10017BEFFDA4074
:102510000008FFFFFFFFF9000DFEA656AFFF6003A6
:1025200070000002FFE000000000008FF2000000D9
:1025300000006FF40028CEEFFFFFF406FFFFFFFF5F
:10254000FFF52FFE5100006FF57FF40000006FF5DE
:102550009FF10000008FF57FF5000002FFF52FFED0
:1025600050016EFFF505FFFFFFFF9FF50029EFFD0E
:10257000923FF57FF30000000000007FF3000000B1
:102580000000007FF30000000000007FF300000067
:102590000000007FF30000000000007FF300000057
:1025A0000000007FF305BEFDB500007FF5CFFFFF03
:1025B000FFD2007FFEFFA768EFFF207FFFD2000061
:1025C00009FFD07FFF20000000AFF57FF900000079
:1025D000002FFA7FF5000000000EFC7FF3000000E2
:1025E000000DFE7FF5000000000EFC7FF9000000EA
:1025F000003FFA7FFF20000000BFF57FFFD2000000
:1026000009FFD07FFDFFA768EFFF207FF3CFFFFF1B
:10261000FFD2007FF205BEFEB50000000039DFFDED
:1026200093000001BFFFFFFFF90001DFFE9669FF85
:10263000F800BFFA000001CF803FFC00000001203D
:1026400008FF400000000000BFF000000000000C88
:10265000FE000000000000BFF0000000000008FFC6
:102660004000000000002FFC000000012000BFFA25
:10267000000001CF8001DFFE9669FFF80001BFFF77
:10268000FFFFF800000039DFFD93000000000000AC
:1026900000002FF80000000000002FF800000000EC
:1026A00000002FF80000000000002FF800000000DC
:1026B00000002FF80000000000002FF800005ADF93
:1026C000EC602FF8002CFFFFFFFD4FF801EFFE96A6
:1026D0006AFFEFF80CFFA000001CFFF83FFC0000B1
:1026E0000001EFF89FF4000000008FF8BFF0000039
:1026F00000003FF8CFE0000000002FF8BFF000001E
:1027000000003FF89FF3000000007FF83FFB00004F
:102710000000DFF80CFF8000000BFFF801EFFC6306
:1027200047EFEFF8002CFFFFFFFE3FF800005BDFF4
:10273000EC700FF800004BDFEC61000001CFFFFFF1
:10274000FFE40001EFFB6459FFF400BFF400000256
:10275000DFE13FF600000002FF69FF000000000B10
:10276000FBBFFFFFFFFFFFFFDCFFFFFFFFFFFFFEE1
:10277000BFF0000000000008FF4000000000003F24
:10278000FC000000001000BFFB1000005E3001DF05
:10279000FF9668CFFC0001BFFFFFFFFD200000395E
:1027A000DEFEA50000000018DFEB40001DFFFFF972
:1027B0000009FFA4493000EFD00000000FF900002D
:1027C0000001FF9000009FFFFFFFFE09FFFFFFFFDA
:1027D000E0234FFB33330001FFA00000001FFA008D
:1027E000000001FFA00000001FFA00000001FFA090
:1027F0000000001FFA00000001FFA00000001FFA07
:1028000000000001FFA00000001FFA00000001FF0F
:10281000A00000001FFA00000000005BDFEC710C5C
:10282000FC003DFFFFFFFE4CFC03FFFD8668EFFE52
:10283000FC0DFF80000008FFFC5FF9000000009F16
:10284000FCAFF2000000002FFCCFE0000000000E03
:10285000FCCFF0000000000FFCAFF2000000002FE2
:10286000FC5FFA00000000AFFC0DFF90000009FFC4
:10287000FC02FFFE9669EFFFFC003DFFFFFFFE4FED
:10288000FB00005BDFEC710FFA0000000000002F7E
:10289000F90000000000008FF503E600000005FFCE
:1028A000E00CFFEA7668CFFF5002CFFFFFFFFFF694
:1028B0000000038BEFFEB710007FF3000000000064
:1028C00007FF3000000000007FF300000000000759
:1028D000FF3000000000007FF3000000000007FF51
:1028E0003000000000007FF306BEFEB50007FF5D6C
:1028F000FFFFFFFB007FFFFE977AFFF907FFFB005A
:102900000003FFF27FFE00000007FF67FF7000007A
:10291000003FF87FF400000001FF97FF3000000047
:102920001FFA7FF300000001FFA7FF300000001F27
:10293000FA7FF300000001FFA7FF300000001FFA3C
:102940007FF300000001FFA7FF300000001FFA7FA7
:10295000F300000001FFA05ED3DFFABFF7065000CE
:102960000000007FF37FF37FF37FF37FF37FF37F3C
:10297000F37FF37FF37FF37FF37FF37FF37FF37FC7
:10298000F3000003EE400000BFFC000009FF9000D0
:10299000000660000000000000000000000005FFCD
:1029A0006000005FF6000005FF6000005FF60000B9
:1029B00005FF6000005FF6000005FF6000005FF6A5
:1029C000000005FF6000005FF6000005FF600000EA
:1029D0005FF6000005FF6000005FF6000005FF6085
:1029E00000005FF5000009FF30B658FFE05FFFFF11
:1029F000F402ADFEB3007FF30000000000007FF39F
:102A00000000000000007FF30000000000007FF3E2
:102A10000000000000007FF30000000000007FF3D2
:102A20000000000000007FF30000004FFE207FF355
:102A3000000005FFE2007FF300006FFE20007FF33F
:102A40000007FFE200007FF3008FFE2000007FF30D
:102A500009FFE20000007FF4AFFF900000007FFE5E
:102A6000FFFFF50000007FFFFC5FFF2000007FFFFD
:102A7000B008FFD000007FFA0000BFFA00007FF32B
:102A800000000DFF70007FF3000002FFF4007FF3F1
:102A90000000005FFE107FF300000008FFC07FF31E
:102AA0007FF37FF37FF37FF37FF37FF37FF37FF396
:102AB0007FF37FF37FF37FF37FF37FF37FF37FF386
:102AC0007FF37FF37FF37FF37FF218CEFD93000255
:102AD0008DFFD920007FF5EFFFFFFF707FFFFFFF25
:102AE000F6007FFFFC645AFFFAFFC645AFFF307F58
:102AF000FF8000006FFFF8000007FFB07FFD0000BF
:102B0000000DFFC0000000DFF07FF700000009FFAC
:102B1000700000009FF17FF400000007FF400000FC
:102B2000008FF27FF300000007FF300000008FF3FA
:102B30007FF300000007FF300000008FF37FF300F9
:102B4000000007FF300000008FF37FF30000000754
:102B5000FF300000008FF37FF300000007FF30001C
:102B600000008FF37FF300000007FF300000008FAC
:102B7000F37FF300000007FF300000008FF37FF3C6
:102B800000000007FF300000008FF37FF207CEFE49
:102B9000B50007FF5EFFFFFFFB007FFFFD7558EFED
:102BA000F907FFF9000002EFF27FFD00000007FFC8
:102BB00067FF700000002FF87FF400000001FF970E
:102BC000FF300000001FFA7FF300000001FFA7FFA5
:102BD000300000001FFA7FF300000001FFA7FF3064
:102BE0000000001FFA7FF300000001FFA7FF300084
:102BF00000001FFA7FF300000001FFA000004ADF81
:102C0000ED820000001BFFFFFFFF800001EFFE963A
:102C10006AFFFB000BFFA000001CFF703FFC0000E0
:102C20000001EFE08FF4000000007FF5BFF000002E
:102C300000003FF7CFE0000000002FF9BFF00000D8
:102C400000003FF78FF4000000008FF53FFC00000C
:102C50000001EFE00BFFA000001CFF7001DFFE96FB
:102C60006AFFFB00001BFFFFFFFF800000004ADF40
:102C7000ED9200007FF206BEFDB500007FF4DFFF9D
:102C8000FFFFD2007FFEFE8446CFFF207FFFC10002
:102C90000007FFD07FFE100000009FF57FF80000C6
:102CA00000002FFA7FF4000000000EFC7FF300000C
:102CB00000000DFE7FF5000000000EFC7FF9000013
:102CC00000003FFA7FFF20000000BFF57FFFD20029
:102CD0000009FFD07FFEFFA768EFFF207FF4CFFF42
:102CE000FFFFD2007FF305BEFEB500007FF30000BA
:102CF000000000007FF30000000000007FF30000F0
:102D0000000000007FF30000000000007FF30000DF
:102D10000000000000005ADFEC600FF8002CFFFFFD
:102D2000FFFD2FF801EFFE966AFFEFF80CFFA00001
:102D3000002CFFF83FFC00000001EFF89FF40000BA
:102D400000007FF8BFF0000000003FF8CFE0000077
:102D500000002FF8BFF0000000003FF89FF40000D3
:102D600000008FF83FFC00000001EFF80CFFA0000E
:102D7000001CFFF801EFFE966AFFEFF8002CFFFF42
:102D8000FFFC3FF800005BDFEC602FF80000000064
:102D900000002FF80000000000002FF800000000E5
:102DA00000002FF80000000000002FF800000000D5
:102DB00000002FF87FF206CE87FF3DFFF87FFDFF72
:102DC000C957FFFD20007FFF100007FF8000007F34
:102DD000F5000007FF3000007FF3000007FF300020
:102DE000007FF3000007FF3000007FF3000007FFC3
:102DF0003000007FF300000000029DFFEC83000024
:102E00008FFFFFFFFF8005FFE86569EF200BFF20C4
:102E1000000003000DFD00000000000BFF7000002B
:102E2000000003FFFEB8510000004DFFFFFFD5007A
:102E30000000369CFFFF700000000005EFF000006E
:102E40000000008FF20570000000BFF10EFFA755D3
:102E50007CFFB01CFFFFFFFFFC100038CEFFDA50F4
:102E60000000088500000001FFA00000001FFA001C
:102E7000000001FFA000009FFFFFFFFE09FFFFFF12
:102E8000FFE0234FFB33330001FFA00000001FFAD7
:102E900000000001FFA00000001FFA00000001FF79
:102EA000A00000001FFA00000001FFA00000000FBA
:102EB000FA00000000FFE00000000AFFB55A4000E1
:102EC0002EFFFFFB000019EFEA309FF10000000524
:102ED000FF69FF100000005FF69FF100000005FF92
:102EE00069FF100000005FF69FF100000005FF6918
:102EF000FF100000005FF69FF100000005FF69FF72
:102F0000100000005FF69FF100000005FF68FF3031
:102F10000000008FF65FF70000000EFF61FFE20087
:102F2000000AFFF608FFE8446DFFFF600AFFFFFF9D
:102F3000FE5FF60004AEFEC702FF600DFE0000005B
:102F40000002FF706FF6000000009FF100EFC0006C
:102F500000001FF90008FF30000007FF20002FFAD3
:102F6000000000EFB00000AFF100005FF4000003CC
:102F7000FF80000CFD0000000DFE0003FF6000005C
:102F8000006FF500AFF000000000EFC01FF9000077
:102F9000000008FF37FF20000000001FFAEFB0001C
:102FA00000000000AFFFF4000000000003FFFD0080
:102FB00000000000000CFF60000000AFE000000017
:102FC0000AFE000000009FD4FF40000001FFF50052
:102FD00000000EF70EF90000006FFFB0000005FFC3
:102FE000108FF000000CFFFF100000BFB002FF5078
:102FF0000002FF5FF600001FF5000CFB00008FD001
:10300000BFC00006FE00007FF1000EF705FF2000A4
:10301000CF900001FF6004FF100EF8002FF30000B6
:103020000BFC00AFB0009FE008FD0000005FF21F46
:10303000F50003FF40EF70000000EF86FF00000C7A
:10304000F94FF100000009FDCF9000006FFAFB007E
:103050000000003FFFF3000001FFFF6000000000E0
:10306000DFFD0000000AFFF00000000007FF700015
:1030700000004FFA0000001EFE10000009FF500380
:10308000FFC000005FF900006FF80002EFC0000011
:103090000AFF500CFF20000000DFE29FF500000057
:1030A000002FFEFF800000000006FFFC0000000073
:1030B0000000EFF500000000000AFFFE2000000005
:1030C000006FFAFFC000000003FFC05FF9000000BE
:1030D0001DFE1009FF500000BFF40000DFF20007E2
:1030E000FF8000002FFD003FFC00000005FFA00D49
:1030F000FE0000000002FF706FF6000000009FF06D
:1031000000EFD00000001FF80007FF50000008FF8C
:1031100010001FFC000000EFA000009FF300006FF4
:10312000F3000002FFA0000DFC0000000AFF1004E5
:10313000FF400000003FF800BFD000000000CFF0CB
:103140002FF60000000004FF79FE00000000000DD3
:10315000FEFF7000000000006FFFF10000000000A3
:1031600000EFF900000000000009FF20000000004F
:103170000001FFB00000000100009FF3000000000C
:10318000EB65AFFA000000006FFFFFFD10000000CC
:10319000006CFFD70000000000BFFFFFFFFFFF5BD8
:1031A000FFFFFFFFFFF4233333338FFB00000000EA
:1031B0002FFD100000001DFF300000000BFF50002D
:1031C000000008FF8000000004FFB000000002FFC4
:1031D000E100000000DFF300000000AFF600000097
:1031E000007FF9000000004FFE333333331DFFFF33
:1031F000FFFFFFF8EFFFFFFFFFFF8000006CFF40C5
:10320000007FFFF4000EFF731001FFB000002FF8E5
:10321000000002FF8000002FF8000002FF80000085
:103220002FF8000002FF8000002FF800013AFF5045
:10323000006FFF900006FFFD1000007FF600000207
:10324000FF8000002FF8000002FF8000002FF80030
:103250000002FF8000002FF8000002FF8000001F26
:10326000FB000000EFF8310006FFFF400005CFF43F
:103270001FF71FF71FF71FF71FF71FF71FF71FF79E
:103280001FF71FF71FF71FF71FF71FF71FF71FF78E
:103290001FF71FF71FF71FF71FF71FF71FF71FF77E
:1032A0001FF71FF77FFB400007FFFF4000149FFC44
:1032B000000000DFF000000AFF000000AFF0000097
:1032C0000AFF000000AFF000000AFF000000AFF0AE
:1032D00000000AFF0000008FF8300001BFFF30003F
:1032E0002EFFF30009FF500000AFF000000AFF00BE
:1032F0000000AFF000000AFF000000AFF000000A7D
:10330000FF000000AFF000000DFF000149FFC0000A
:103310007FFFF40007FFB40000007EFC300002FADB
:1033200007FFFFF60005F80EF627FF801DF43FB0FB
:10333000004EFFFFB05F700001AFFA1000001000F8
:1033400000007EFFC4000AFA67DF504F80000CF0D7
:103350009F000004F5BD000002F69F100005F43F39
:10336000A0001EE008FD9AFF40005CFEA2000001E4
:103370000004EFC10EFFFB1FFFFD0EFFFA03CFB1EC
:10338000000000000000000000000000013000000C
:1033900000000000000000000038DFF9000000001D
:1033A000000000000015AEFFFFFF0000000000005D
:1033B00000027CFFFFFFFFFF00000000000049EF5C
:1033C000FFFFFFFFFFFF0000000016BFFFFFFFFF32
:1033D000FFFFFFFF00000008FFFFFFFFFFFFFFFFF1
:1033E000FFFF0000000FFFFFFFFFFFFFFFFFFFFFDA
:1033F0000000000FFFFFFFFFFFFFFFE9BFFF00001E
:10340000000FFFFFFFFFFFFC73008FFF0000000FA6
:10341000FFFFFFFEA51000008FFF0000000FFFFF61
:10342000D830000000008FFF0000000FFFA2000056
:10343000000000008FFF0000000FFF800000000070
:1034400000008FFF0000000FFF8000000000000060
:103450008FFF0000000FFF800000000000008FFFC2
:103460000000000FFF800000000000008FFF000040
:10347000000FFF800000000000008FFF0000000F21
:10348000FF80000000017ACBCFFF0000000FFF801B
:103490000000005FFFFFFFFF0000000FFF80000043
:1034A00002FFFFFFFFFF0001332FFF80000007FF37
:1034B000FFFFFFFF03CFFFFFFF80000005FFFFFFBF
:1034C000FFFD5FFFFFFFFF80000000BFFFFFFFF475
:1034D000DFFFFFFFFF8000000007EFFFFB20FFFF83
:1034E000FFFFFF700000000001320000AFFFFFFF90
:1034F000FF2000000000000000000AFFFFFFE400C2
:1035000000000000000000000027AA950000000055
:103510000000000000009B000CFFFFFFFFFFFFFF0B
:10352000FFB000B9FE444EFFFFFFFFFFFFFFFFE4C7
:1035300044EFFFFFFFFFAAAAAAAAAAAAFFFFFFFF64
:10354000FF888FFD000000000000EFF888FFFC00FE
:103550000CFD000000000000EFB000CFFC000CFDEF
:10356000000000000000EFB000CFFD000DFD0000E6
:1035700000000000EFD000DFFFFFFFFD00000000B3
:103580000000EFFFFFFFFFCCCFFE000000000000B7
:10359000EFFCCCFFFC000CFFDDDDDDDDDDDDFFC081
:1035A00000CFFC000CFFFFFFFFFFFFFFFFB000CFCD
:1035B000FC000CFFDDDDDDDDDDDDFFC000CFFFCC7D
:1035C000CFFE000000000000EFFCCCFFFFFFFFFD7E
:1035D000000000000000EFFFFFFFFD000DFD0000F8
:1035E00000000000EFD000DFFC000CFD0000000038
:1035F0000000EFB000CFFC000CFD00000000000058
:10360000EFB000CFFF888FFD000000000000EFF852
:1036100088FFFFFFFFFFAAAAAAAAAAAAFFFFFFFF2F
:10362000FE444EFFFFFFFFFFFFFFFFE444EFAB0050
:103630000CFFFFFFFFFFFFFFFFB000B99FFFFFFB85
:1036400000AFFFFFFFFFFFFFFFF9FFFFFFFF21FFBD
:10365000FFFFFFFFFFFFFFFFFFFFFFFF21FFFFFF58
:10366000FFFFFFFFFFFFFFFFFFFF21FFFFFFFFFF48
:10367000FFFFFFFFFFFFFFFF21FFFFFFFFFFFFFF38
:10368000FFFFFFFFFFFF21FFFFFFFFFFFFFFFFFF28
:10369000AFFFFFFC00CFFFFFFFFFFFFFFFFA0000BF
:1036A000000000000000000000000000000000001A
:1036B000000000000000000000009FFFFFFB00BFB3
:1036C000FFFFFFFFFFFFFFF9FFFFFFFF21FFFFFFEE
:1036D000FFFFFFFFFFFFFFFFFFFF21FFFFFFFFFFD8
:1036E000FFFFFFFFFFFFFFFF21FFFFFFFFFFFFFFC8
:1036F000FFFFFFFFFFFF21FFFFFFFFFFFFFFFFFFB8
:10370000FFFFFFFF21FFFFFFFFFFFFFFFFFFAFFFF7
:10371000FFFC00BFFFFFFFFFFFFFFFF900000000FD
:103720000000000000000000000000000000000099
:103730000000000000000000AFFFFFFC00CFFFFF13
:10374000FFFFFFFFFFFAFFFFFFFF21FFFFFFFFFF6C
:10375000FFFFFFFFFFFFFFFF21FFFFFFFFFFFFFF57
:10376000FFFFFFFFFFFF21FFFFFFFFFFFFFFFFFF47
:10377000FFFFFFFF21FFFFFFFFFFFFFFFFFFFFFF37
:10378000FFFF21FFFFFFFFFFFFFFFFFF9FFFFFFB8B
:1037900000AFFFFFFFFFFFFFFFF900000000000088
:1037A000000000000005E90000000000000000002B
:1037B0000000006FFFA000000000000000000000FB
:1037C00006FFFFF9000000000000000000006FFF8E
:1037D000FFFF00000000000000000006FFFFFFF8F0
:1037E0000000000000000000006FFFFFFF800000ED
:1037F00000000000000006FFFFFFF800008E5000F0
:10380000000000006FFFFFFF80000AFFF6000000CD
:103810000006FFFFFFF800009FFFFF600000006F41
:10382000FFFFFF800000FFFFFFF6000006FFFFFF25
:10383000F80000008FFFFFFF60006FFFFFFF8000B8
:10384000000008FFFFFFF606FFFFFFF80000000082
:10385000008FFFFFFFAFFFFFFF80000000000008A8
:10386000FFFFFFFFFFFFF8000000000000008FFFD8
:10387000FFFFFFFF800000000000000008FFFFFFC7
:10388000FFF80000000000000000008FFFFFFF7045
:1038900000000000000000000007FFFFF70000002C
:1038A00000000000000000007FFF7000000000002A
:1038B00000000000000007E700000000000000001A
:1038C0000000000000000000100006FF5000000093
:1038D000002DFA006FFFF500000002EFFFA0EFFFE0
:1038E000FF5000002EFFFFF2CFFFFFF50002EFFFB9
:1038F000FFF12EFFFFFF502EFFFFFF5002EFFFFFF3
:10390000F7EFFFFFF500002EFFFFFFFFFFFF500066
:103910000002EFFFFFFFFFF5000000002EFFFFFF9A
:10392000FF500000000004FFFFFFF800000000004F
:103930002EFFFFFFFF5000000002EFFFFFFFFFF52B
:103940000000002EFFFFFFFFFFFF500002EFFFFF10
:10395000F6EFFFFFF5002EFFFFFF402EFFFFFF50A9
:10396000CFFFFFF40002EFFFFFF1EFFFFF40000089
:103970002EFFFFF26FFFF400000002EFFFA006FF32
:1039800040000000002DFA000000000000000000D0
:103990001000000000000000699600000000000018
:1039A000000000000002FFFF2000000000000000F7
:1039B00000000003FFFF300000000000000001A82D
:1039C0000003FFFF30008A10000000003EFF60038C
:1039D000FFFF3006FFE300000002EFFFE003FFFF00
:1039E000300EFFFF3000000DFFFFE003FFFF300E41
:1039F000FFFFD100009FFFFE3003FFFF3003EFFF0A
:103A0000F90002FFFFE20003FFFF30002EFFFF205E
:103A100009FFFF500003FFFF300005FFFF900EFF7E
:103A2000FC000003FFFF300000CFFFE03FFFF50088
:103A30000003FFFF3000006FFFF36FFFF000000393
:103A4000FFFF3000000FFFF67FFFE0000003FFFFE5
:103A50003000000EFFF88FFFD0000002FFFF2000B3
:103A6000000DFFF88FFFE0000000EFFE0000000EE9
:103A7000FFF76FFFF000000002200000000FFFF6CC
:103A80003FFFF500000000000000005FFFF30EFFA5
:103A9000FB0000000000000000BFFFE009FFFF4046
:103AA00000000000000004FFFF9002FFFFE20000A2
:103AB000000000002EFFFF20009FFFFE30000000EE
:103AC0000003EFFFF900001EFFFFF8000000008F69
:103AD000FFFFD1000003FFFFFFFA7557AFFFFFFEA6
:103AE000200000003EFFFFFFFFFFFFFFFFE300009D
:103AF000000002CFFFFFFFFFFFFFFC1000000000EF
:103B00000006EFFFFFFFFFFE600000000000000066
:103B1000049DFFFED94000000000000000000000EE
:103B20000000000000000000000000000000000095
:103B3000000000000000000000002CFFFFD6000085
:103B40000000000000000005FFFFFFA000000000D3
:103B500000000000005FFFFFFA000000000000000E
:103B6000000008FFFFFFC1000000000001C8005D69
:103B7000FFFFFFFFF8006D400000CFFEAFFFFFFF2B
:103B8000FFFFFCCFFE20007FFFFFFFFFFFFFFFFFD7
:103B9000FFFFFB001FFFFFFFFFFFFFFFFFFFFFFF18
:103BA000F407FFFFFFFFFFFFFFFFFFFFFFFFB0CFA7
:103BB000FFFFFFFFE7325DFFFFFFFFFF13CFFFFFB8
:103BC000FFE100000BFFFFFFFE60007FFFFFF4003E
:103BD00000000EFFFFFB100004FFFFFE00000000CE
:103BE0009FFFFF9000005FFFFFC000000008FFFF85
:103BF000FA000004FFFFFE000000009FFFFF8000AE
:103C0000007FFFFFF40000000EFFFFFB1003CFFF5B
:103C1000FFFFE100000BFFFFFFFE60CFFFFFFFFF94
:103C2000E7325DFFFFFFFFFF17FFFFFFFFFFFFFF13
:103C3000FFFFFFFFFFB01EFFFFFFFFFFFFFFFFFFC4
:103C4000FFFFF4007FFFFFFFFFFFFFFFFFFFFFFB12
:103C50000000CFFEAFFFFFFFFFFFFCCFFE10000113
:103C6000C8005DFFFFFFFFF8005D4000000000009E
:103C700008FFFFFFC00000000000000000005FFF21
:103C8000FFFA00000000000000000005FFFFFFA099
:103C90000000000000000000002CFFFFD600000024
:103CA0000000000000000000000000000000000014
:103CB000000000000000003760000048884000005D
:103CC00000000000000007FFFD1000AFFFA0000093
:103CD000000000000000AFFFFFE300BFFFB00000E6
:103CE00000000000001CFFFFFFFF60BFFFB00000EE
:103CF0000000000003EFFFF8CFFFF9BFFFB00000A6
:103D0000000000006FFFFE300AFFFFFFFFB0000061
:103D100000000008FFFFD203107FFFFFFFB000008C
:103D2000000001BFFFFA008FD204FFFFFFB00000C8
:103D300000002DFFFF800BFFFF402DFFFFB00000B4
:103D40000004FFFFF502DFFFFFF701BFFFFA0000ED
:103D5000007FFFFE303EFFFFFFFFA009FFFFC10015
:103D60000AFFFFC106FFFFFFFFFFFC106FFFFE30E1
:103D7000BFFFFA009FFFFFFFFFFFFFE304EFFFF429
:103D8000BFFF701BFFFFFFFFFFFFFFFF502DFFF383
:103D90000DF402DFFFFFFFFFFFFFFFFFF800BF6032
:103DA00001200BFFFFFFFFFFFFFFFFFFFF300300BE
:103DB00000000CFFFFFFFFFFFFFFFFFFFF400000C1
:103DC00000000CFFFFFFFFFFFFFFFFFFFF400000B1
:103DD00000000CFFFFFFF40000CFFFFFFF400000DA
:103DE00000000CFFFFFFF20000AFFFFFFF400000EC
:103DF00000000CFFFFFFF20000AFFFFFFF400000DC
:103E000000000CFFFFFFF20000AFFFFFFF400000CB
:103E100000000CFFFFFFF20000AFFFFFFF400000BB
:103E200000000CFFFFFFF20000AFFFFFFF400000AB
:103E3000000008FFFFFFD000006FFFFFFE10000032
:103E40000000000000035555300000000000000095
:103E50000000005FFFFFF500000000000000000010
:103E6000008FFFFFF8000000000000000000008F3E
:103E7000FFFFF8000000000000000000008FFFFFBF
:103E8000F8000000000000000000008FFFFFF800B5
:103E90000000000000000000008FFFFFF80000009D
:103EA000000000000000008FFFFFF800000000008D
:103EB00000000000008FFFFFF8000000000000007D
:103EC0000000008FFFFFF80000000000000000006D
:103ED000008FFFFFF8000000000000001CDDDDEF98
:103EE000FFFFFEDDDDC1000000004FFFFFFFFFFF11
:103EF000FFFFFFF40000000009FFFFFFFFFFFFFFCF
:103F0000FF9000000000009FFFFFFFFFFFFFF90090
:103F1000000000000009FFFFFFFFFFFF900000000E
:103F2000000000008FFFFFFFFFF80000000000000E
:103F3000000008FFFFFFFF800000000000000000FD
:103F4000008FFFFFF80000000000011111111008A0
:103F5000FFFF800111111110BFFFFFFFFD108FF84F
:103F600001DFFFFFFFFBFFFFFFFFFFE206602DFF0A
:103F7000FFFFFFFFFFFFFFFFFFFE3003EFFFFFFF2D
:103F8000FFFFFFFFFFFFFFFFFDDFFFFFFFFFFFFF63
:103F9000FFFFFFFFFFFFFFFFFFFFFFFFFFFFFFFF31
:103FA000FFFFFFFFFFFFFFF41EB08FFFFFFFFFFFCC
:103FB000FFFFFFFFFFF52EC18FFFEFFFFFFFFFFFAA
:103FC000FFFFFFFFFFFFFFFE37888888888888880B
:103FD0008888888888730000002BFFFFFFFFFFFFA1
:103FE000FFFE80000000000001EFFFFFFFFFFFFF6A
:103FF000FFFFF800000000000AFFFFFFFFFFFFFFC8
:10400000FFFFFF30000000005FFFD88888888888A5
:10401000889FFFD000000001EFFF3000000000008B
:10402000000BFFF80000000AFFF80000000000008D
:104030000001EFFF3000005FFFD000000000000033
:1040400000005FFFD00001EFFF3000000000000023
:1040500000000BFFF8000AFFF8000000000000005D
:10406000000001EFFF205FFFD00000000000000013
:104070000000005FFFD0DFFFB888887000000000FC
:104080004888888EFFF5FFFFFFFFFFF70000000064
:10409000EFFFFFFFFFF7FFFFFFFFFFFE000000073E
:1040A000FFFFFFFFFFF8FFFFFFFFFFFF7000000EA5
:1040B000FFFFFFFFFFF8FFFFFFFFFFFFFFFFFFFF17
:1040C000FFFFFFFFFFF8FFFFFFFFFFFFFFFFFFFF07
:1040D000FFFFFFFFFFF8FFFFFFFFFFFFFFFFFFFFF7
:1040E000FFFFFFFFFFF8FFFFFFFFFFFFFFFFFFFFE7
:1040F000FFFFFFFFFFF8FFFFFFFFFFFFFFFFFFFFD7
:10410000FFFFFFFFFFF7BFFFFFFFFFFFFFFFFFFF07
:10411000FFFFFFFFFFF31BFFFFFFFFFFFFFFFFFF9F
:10412000FFFFFFFFFE500000000000000000000045
:104130000000588600000000049DEFFEB72000003C
:10414000DFFF00000006DFFFFFFFFFFB3000DFFFA7
:10415000000001BFFFFFFFFFFFFFFA10CFFF0000CD
:104160002EFFFFFFFEEFFFFFFFE3BFFF0002EFFFA9
:10417000FF9400004BFFFFFEDFFF000DFFFFC200BA
:104180000000003CFFFFFFFF009FFFF90000000060
:1041900000008FFFFFFF02FFFF90000000001100F2
:1041A00008FFFFFF09FFFD0000000003FFFFEEFF17
:1041B000FFFF0EFFF40000000004FFFFFFFFFFFF02
:1041C0003FFFE00000000004FFFFFFFFFFFF2BCCDC
:1041D000600000000001BCCCCCCCCCCA00000000C8
:1041E00000000000000000000000000000000000CF
:1041F00000000000000000000000000000000000BF
:10420000000000000000ACCCCCCCCCCB10000000F7
:104210000006BCB2FFFFFFFFFFFF40000000000EE2
:10422000FFF2FFFFFFFFFFFF40000000005FFFE025
:10423000FFFFFFEEFFFF3000000000DFFF90FFFFF9
:10424000FF800011000000000AFFFF20FFFFFFF8C1
:104250000000000000009FFFF900FFFFFFFFB20019
:104260000000002CFFFFD000FFFDEFFFFFA40000C7
:104270004AFFFFFE2000FFFB3EFFFFFFFEEFFFFFB8
:10428000FFE20000FFFC01AFFFFFFFFFFFFFFB109D
:104290000000FFFD0003BFFFFFFFFFFD6000000007
:1042A000FFFD0000027CFFFFD94000000000688590
:1042B00000000000000000000000000000000000FE
:1042C000000000000000000003B600000000003FF6
:1042D000FF0000000003FFFF000000003FFFFF00A1
:1042E000000003FFFFFF3888888FFFFFFFEFFFFF0D
:1042F000FFFFFFFFFFFFFFFFFFFFFFFFFFFFFFFFCE
:10430000FFFFFFFFFFFFFFFFFFFFFFFFFFFFFFFFBD
:10431000FFFFFFFFFFFFFFFFFFFFFFFFFFFFFFFFAD
:10432000FFFFFFFFFFFFFFFFFFFFFFFF9FFFFFFFFD
:10433000FFFFFF00000008FFFFFF000000008FFFED
:10434000FF0000000008FFFF00000000008FFF00DA
:104350000000000008FC0000000000001000000049
:10436000000000000000000000000000003B6000B2
:10437000000000000000003EFF0000000000000000
:10438000003FFFF0000000000000003FFFFF0000C2
:1043900000000000003FFFFFF00000003888888F19
:1043A000FFFFFF0000000EFFFFFFFFFFFFF001B95E
:1043B00000FFFFFFFFFFFFFF006FFC0FFFFFFFFF8E
:1043C000FFFFF001CFF7FFFFFFFFFFFFFF0000EF50
:1043D000DFFFFFFFFFFFFFF0000AFFFFFFFFFFFF10
:1043E000FFFF0000DFDFFFFFFFFFFFFFF000BFF870
:1043F000FFFFFFFFFFFFFF006FFD0FFFFFFFFFFF4E
:10440000FFF002DB109FFFFFFFFFFFFF0000000037
:104410000000008FFFFFF0000000000000008FFF91
:10442000FF00000000000000008FFFF0000000000F
:10443000000000008FFF0000000000000000008F5F
:10444000C00000000000000000002000000000008C
:1044500000000000000000000000185000000000F4
:10446000000000000000000000007FFA00000000D3
:10447000000000000000000000003FFFC10000003D
:104480000000000003B60000000002DFFC00000096
:10449000000000003FFF00000021001CFF90000012
:1044A00000000003FFFF000004FE5001EFF30000D6
:1044B0000000003FFFFF000005FFF6004FFC00007A
:1044C000000003FFFFFF0000007FFF400AFF4038AD
:1044D00088888FFFFFFF00000005FFE002FFA0EFCC
:1044E000FFFFFFFFFFFF001CA1008FF600CFF0FFD2
:1044F000FFFFFFFFFFFF006FFD001FFC008FF2FFBB
:10450000FFFFFFFFFFFF001CFF800AFF004FF5FFCA
:10451000FFFFFFFFFFFF0000DFD007FF203FF7FF97
:10452000FFFFFFFFFFFF0000AFF006FF302FF7FF98
:10453000FFFFFFFFFFFF0000DFD007FF203FF7FF77
:10454000FFFFFFFFFFFF001CFF800AFF004FF5FF8A
:10455000FFFFFFFFFFFF006FFD001FFC008FF2FF5A
:10456000FFFFFFFFFFFF001CA1009FF600DFE09FA1
:10457000FFFFFFFFFFFF00000005FFE003FFA000BB
:10458000000008FFFFFF0000007FFF400AFF40001F
:104590000000008FFFFF000005FFF6004FFC000049
:1045A00000000008FFFF000004FE5001EFF30000D0
:1045B000000000008FFF00000021001DFF900000A0
:1045C0000000000008FC0000000002DFFC0000000A
:1045D000000000000010000000003FFFC1000000CC
:1045E000000000000000000000007FFA0000000052
:1045F0000000000000000000000018500000001B38
:10460000FFFFFFFFFFFFFFFFFFFFFFFFB1BFFFFF48
:10461000FFFFFFFFFFFFFFFFFFFFFBFFFFFFFFFFAE
:10462000FFFFFFFFFFFFFFFFFFFFFF9327FFFFFFDE
:10463000FFFFFFFFFFFFFFFFF900005FFFFFFFFF2E
:10464000FFFFFFFFFFFFF200000EFFFFFFFFFFFF76
:10465000FFFFFFFFF200000EFFFFFFFFD8FFFFFF8D
:10466000FFFFF700003FFFFFFFFC106FFFFFFFFFA2
:10467000FF5003DFFFFFFFC10006FFFFFFFFFFFE4C
:10468000EFFFFFFFFC1000006FFFFFFFFFFFFEFFCB
:10469000FFFFC100000006FFFFFFFFFFC13EFFFC60
:1046A00010000000009FFFFFFFFC1003EFC100009F
:1046B0000000008FFFFFFFC100003B100000000062
:1046C000008FFFFFFD100000000000000000008FC1
:1046D000FFFFF8000000000000000000008FFFFF57
:1046E000F8000000000000000000008FFFFFFC88C1
:1046F000888888888888888888CFFFFFFFFFFFFF29
:10470000FFFFFFFFFFFFFFFFFFBFFFFFFFFFFFFFF9
:10471000FFFFFFFFFFFFFB1BFFFFFFFFFFFFFFFF91
:10472000FFFFFFFFB1000000003950000000000053
:10473000000000EFF20000000000000004FFF8009D
:104740000000000000000AFFFE0000000000000062
:104750001FFFFF400000000000008FFFFFC00000AF
:1047600000000001FFFFFFF4000000000008FFFF51
:10477000FFFC00000000002FFFFFFFFF60000000B3
:1047800000CFFFFFFFFFF100000007FFFFFFFFFF6B
:10479000FB0000003FFFFFFFFFFFFF700000DFFF97
:1047A000FFFFFFFFFFF30007FFFFFFFFFFFFFFFB20
:1047B000000EFFFFFFFFFFFFFFFF306FFFFFFFFF58
:1047C000FFFFFFFF90BFFFFFFFFFFFFFFFFFE0DFE7
:1047D000FFFFFFFFFFFFFFFFF1FFFA0DFFFFFFFFEE
:1047E000FFFFF3EFF80AFFFFFFFFFFFFF2DFFC061A
:1047F000FFFFFFFFFFFFF19FFF20CFFFFFFFFFFF46
:10480000D04FFFB009FFFFFFFFFF700CFFFA00025F
:10481000CFFFFFFE1002FFFFD610BFFFFFF5000025
:104820005FFFFFFFFFFFFF80000004EFFFFFFFFFC0
:10483000F60000000018FFFFFFFA20000000000053
:104840000467640000000048880000000000077052
:10485000BFFF3000000000BFF9BFFF300000001CA8
:10486000FFFCBFFF30000001DFFFFCBFFF30000096
:104870002EFFFFFCBFFF300003EFFFFFFCBFFF3048
:10488000004FFFFFFFFCBFFF3005FFFFFFFFFCBF36
:10489000FF306FFFFFFFFFFCBFFF37FFFFFFFFFF92
:1048A000FCBFFFBFFFFFFFFFFFFCBFFFFFFFFFFFDE
:1048B000FFFFFCBFFFFFFFFFFFFFFFFCBFFFFFFF8E
:1048C000FFFFFFFFFCBFFFFFFFFFFFFFFFFCBFFF7E
:1048D0005DFFFFFFFFFFFCBFFF31CFFFFFFFFFFCCE
:1048E000BFFF300BFFFFFFFFFCBFFF3000AFFFFF3C
:1048F000FFFCBFFF300009FFFFFFFCBFFF300000DF
:104900008FFFFFFCBFFF30000006FFFFFCBFFF3042
:104910000000005FFFFCBFFF3000000004FFFB9FB2
:10492000FE20000000003DD3000000000000000059
:104930000003750000000000000000000007FFFCFD
:1049400030000000000000000000EFFFFF910000B9
:104950000000000000000FFFFFFFE6000000000065
:10496000000000FFFFFFFFFD300000000000000F0F
:10497000FFFFFFFFFFA1000000000000FFFFFFFF9F
:10498000FFFFF700000000000FFFFFFFFFFFFFFD2C
:104990004000000000FFFFFFFFFFFFFFFFB200002D
:1049A000000FFFFFFFFFFFFFFFFFF8000000FFFF0A
:1049B000FFFFFFFFFFFFFFFE50000FFFFFFFFFFFA6
:1049C000FFFFFFFFFFB200FFFFFFFFFFFFFFFFFF43
:1049D000FFFFF70FFFFFFFFFFFFFFFFFFFFFFFF4EA
:1049E000FFFFFFFFFFFFFFFFFFFFFFFF7FFFFFFF57
:1049F000FFFFFFFFFFFFFFFFF4FFFFFFFFFFFFFFD2
:104A0000FFFFFFFFF70FFFFFFFFFFFFFFFFFFFFFAE
:104A1000B200FFFFFFFFFFFFFFFFFFFE50000FFF91
:104A2000FFFFFFFFFFFFFFF8000000FFFFFFFFFF9A
:104A3000FFFFFFB20000000FFFFFFFFFFFFFFD4081
:104A400000000000FFFFFFFFFFFFF7000000000075
:104A50000FFFFFFFFFFFA1000000000000FFFFFFAE
:104A6000FFFD300000000000000FFFFFFFE6000028
:104A7000000000000000EFFFFF91000000000000B8
:104A8000000006FFFC3000000000000000000003F2
:104A90007400000000000000000000001AEFFFFF9B
:104AA000D500001AEFFFFFD50AFFFFFFFFF2000A53
:104AB000FFFFFFFFF2FFFFFFFFFF7000FFFFFFFFA1
:104AC000FF7FFFFFFFFFF8000FFFFFFFFFF8FFFF73
:104AD000FFFFFF8000FFFFFFFFFF8FFFFFFFFFF8DB
:104AE000000FFFFFFFFFF8FFFFFFFFFF8000FFFF4A
:104AF000FFFFFF8FFFFFFFFFF8000FFFFFFFFFF833
:104B0000FFFFFFFFFF8000FFFFFFFFFF8FFFFFFFA3
:104B1000FFF8000FFFFFFFFFF8FFFFFFFFFF800020
:104B2000FFFFFFFFFF8FFFFFFFFFF8000FFFFFFFFB
:104B3000FFF8FFFFFFFFFF8000FFFFFFFFFF8FFF7A
:104B4000FFFFFFF8000FFFFFFFFFF8FFFFFFFFFF72
:104B50008000FFFFFFFFFF8FFFFFFFFFF8000FFF49
:104B6000FFFFFFF8FFFFFFFFFF8000FFFFFFFFFFDA
:104B70008FFFFFFFFFF8000FFFFFFFFFF8FFFFFFB2
:104B8000FFFF8000FFFFFFFFFF8FFFFFFFFFF80029
:104B90000FFFFFFFFFF8FFFFFFFFFF8000FFFFFF9A
:104BA000FFFF8FFFFFFFFFF7000FFFFFFFFFF7EF94
:104BB000FFFFFFFF6000EFFFFFFFFF66FFFFFFFF4C
:104BC000D00006FFFFFFFFD0048999987100000410
:104BD0008999987100038888888888888888888857
:104BE0006006FFFFFFFFFFFFFFFFFFFFFFD0EFFFAC
:104BF000FFFFFFFFFFFFFFFFFFFF6FFFFFFFFFFF55
:104C0000FFFFFFFFFFFFF7FFFFFFFFFFFFFFFFFFBC
:104C1000FFFFFF8FFFFFFFFFFFFFFFFFFFFFFFF81B
:104C2000FFFFFFFFFFFFFFFFFFFFFFFF8FFFFFFF04
:104C3000FFFFFFFFFFFFFFFFF8FFFFFFFFFFFFFF8B
:104C4000FFFFFFFFFF8FFFFFFFFFFFFFFFFFFFFFE4
:104C5000FFF8FFFFFFFFFFFFFFFFFFFFFFFF8FFFDB
:104C6000FFFFFFFFFFFFFFFFFFFFF8FFFFFFFFFF5B
:104C7000FFFFFFFFFFFFFF8FFFFFFFFFFFFFFFFFB4
:104C8000FFFFFFF8FFFFFFFFFFFFFFFFFFFFFFFF3B
:104C90008FFFFFFFFFFFFFFFFFFFFFFFF8FFFFFF9B
:104CA000FFFFFFFFFFFFFFFFFF8FFFFFFFFFFFFF84
:104CB000FFFFFFFFFFF8FFFFFFFFFFFFFFFFFFFF0B
:104CC000FFFF8FFFFFFFFFFFFFFFFFFFFFFFF8FF6B
:104CD000FFFFFFFFFFFFFFFFFFFFFF8FFFFFFFFF54
:104CE000FFFFFFFFFFFFFFF8FFFFFFFFFFFFFFFFDB
:104CF000FFFFFFFF7AFFFFFFFFFFFFFFFFFFFFFF49
:104D0000F21AEFFFFFFFFFFFFFFFFFFFD500058156
:104D1000000000000068875FFE2000000000EFFF39
:104D20007FFFE300000000FFFF8FFFFF4000000057
:104D3000FFFF8FFFFFF5000000FFFF8FFFFFFF6009
:104D40000000FFFF8FFFFFFFF80000FFFF8FFFFF56
:104D5000FFFF9000FFFF8FFFFFFFFFFA00FFFF8FB5
:104D6000FFFFFFFFFFB0FFFF8FFFFFFFFFFFFCFF15
:104D7000FF8FFFFFFFFFFFFFFFFF8FFFFFFFFFFF23
:104D8000FFFFFF8FFFFFFFFFFFFFFFFF8FFFFFFF13
:104D9000FFFFFFFFFF8FFFFFFFFFFFE3FFFF8FFF1F
:104DA000FFFFFFFE20FFFF8FFFFFFFFFD200FFFF8F
:104DB0008FFFFFFFFD1000FFFF8FFFFFFFC100000F
:104DC000FFFF8FFFFFFB000000FFFF8FFFFFA00032
:104DD0000000FFFF8FFFF900000000FFFF7FFF8052
:104DE00000000000FFFF1CF60000000000CFFD00E7
:104DF00000000000000000000000000000019A50C8
:104E0000000000000000000000001EFFF80000008D
:104E100000000000000001DFFFFF60000000000054
:104E20000000000CFFFFFFF5000000000000000084
:104E3000BFFFFFFFFF400000000000000AFFFFFF70
:104E4000FFFFF30000000000009FFFFFFFFFFFFED9
:104E5000200000000008FFFFFFFFFFFFFFE1000050
:104E600000006FFFFFFFFFFFFFFFFD10000005FFC9
:104E7000FFFFFFFFFFFFFFFFC000004FFFFFFFFF2F
:104E8000FFFFFFFFFFFB0003FFFFFFFFFFFFFFFF31
:104E9000FFFFFFA00CFFFFFFFFFFFFFFFFFFFFFF74
:104EA000F50FFFFFFFFFFFFFFFFFFFFFFFF70AFF09
:104EB000FFFFFFFFFFFFFFFFFFFFF301BFFFFFFF4C
:104EC000FFFFFFFFFFFFFE6000000000000000008A
:104ED00000000000000000000000000000000000D2
:104EE000000006FFFFFFFFFFFFFFFFFFFFFFD10FE7
:104EF000FFFFFFFFFFFFFFFFFFFFFFF70FFFFFFFBA
:104F0000FFFFFFFFFFFFFFFFF80FFFFFFFFFFFFFA8
:104F1000FFFFFFFFFFF80FFFFFFFFFFFFFFFFFFF98
:104F2000FFFFF80EFFFFFFFFFFFFFFFFFFFFFFF692
:104F300005EFFFFFFFFFFFFFFFFFFFFFB0000000D7
:104F4000000003930000000000004FFF300000004D
:104F50000004FFFFE0000000004FFFFFC000000062
:104F600004FFFFFD100000004FFFFFD10000000410
:104F7000FFFFFD100000004FFFFFD100000004FF05
:104F8000FFFD100000004FFFFFD100000004FFFFF5
:104F9000FD100000003FFFFFD1000000007FFFFF79
:104FA00070000000000BFFFFF60000000000BFFFD4
:104FB000FF60000000000BFFFFF60000000000BFD4
:104FC000FFFF60000000000BFFFFF6000000000084
:104FD000CFFFFF60000000000CFFFFF600000000A4
:104FE00000CFFFFF60000000000CFFFFF00000009A
:104FF0000000CFFFA000000000000BFA000000003E
:10500000000000200000780000000000000AFFB04F
:1050100000000000006FFFFB00000000004FFFFFDA
:10502000B00000000007FFFFFB00000000007FFF52
:10503000FFB00000000007FFFFFB00000000007F42
:10504000FFFFB00000000007FFFFFB0000000000B2
:105050007FFFFFB00000000007FFFFFB0000000023
:10506000007FFFFFA0000000001EFFFFF000000017
:1050700001CFFFFF500000001CFFFFF50000000102
:10508000CFFFFF500000001CFFFFF500000001CF24
:10509000FFFF500000001CFFFFF500000001DFFFD4
:1050A000FF500000001DFFFFF5000000007FFFFF24
:1050B00050000000002FFFF5000000000003FF502B
:1050C00000000000000011000000000000000000CF
:1050D00000005AA8100000000000000000003FFF80
:1050E000FB00000000000000000005FFFFD00000F2
:1050F000000000000000006FFFFE00000000000044
:1051000000000006FFFFE0000000000000000000BB
:105110006FFFFE00000000000000000006FFFFE03F
:105120000000000000000000006FFFFE0000000013
:10513000000000000006FFFFE0000000000000008B
:1051400000006FFFFE00000000006FFFFFFFFFFF89
:10515000FFFFFFFFFFFC1FFFFFFFFFFFFFFFFFFF42
:10516000FFFFF7FFFFFFFFFFFFFFFFFFFFFFFF8FC7
:10517000FFFFFFFFFFFFFFFFFFFFFFF79FFFFFFFA7
:10518000FFFFFFFFFFFFFFFE20233333338FFFFEC0
:1051900033333333100000000006FFFFE00000004F
:1051A0000000000000006FFFFE0000000000000093
:1051B000000006FFFFE00000000000000000006F9C
:1051C000FFFE00000000000000000006FFFFE000FE
:1051D00000000000000000006FFFFE000000000063
:1051E0000000000006FFFFE00000000000000000DB
:1051F000004FFFFC000000000000000000008DDCFC
:10520000300000000000012222222222222222223B
:10521000221008FFFFFFFFFFFFFFFFFFFFFFE1FF7F
:10522000FFFFFFFFFFFFFFFFFFFFFF7FFFFFFFFF0E
:10523000FFFFFFFFFFFFFFF8FFFFFFFFFFFFFFFF85
:10524000FFFFFFFF77FFFFFFFFFFFFFFFFFFFFFFF6
:10525000E101222222222222222222221000000008
:1052600000000026ADEFFEC9500000000000000065
:1052700000005CFFFFFFFFFFFFA200000000000036
:10528000003CFFFFFFBABDFFFFFF910000000000E0
:1052900008FFFFFD50000018FFFFFE400000000067
:1052A000BFFFFFA0000000003EFFFFF60000000C63
:1052B000FFFFFB000039950002EFFFFF700000AF19
:1052C000FFFFE000003FFFD2005FFFFFF50007FF98
:1052D000FFFF7000003FFFFE100DFFFFFF202FFFBC
:1052E000FFFF200000AFFFFF8008FFFFFFC0BFFFF0
:1052F000FFFF00486BFFFFFFD005FFFFFFF5FFFF3B
:10530000FFFE007FFFFFFFFFF004FFFFFFF9BFFF7D
:10531000FFFF006FFFFFFFFFE005FFFFFFF51FFF2F
:10532000FFFF201FFFFFFFFF9008FFFFFFC006FFEA
:10533000FFFF7008FFFFFFFF200DFFFFFF2000AF02
:10534000FFFFE000AFFFFFF4005FFFFFF500000B81
:10535000FFFFFB0004ADC81002EFFFFF700000006C
:10536000BFFFFFA0000000003EFFFFF600000000AE
:1053700007FFFFFD50000018FFFFFE400000000087
:10538000003CFFFFFFBAACFFFFFF910000000000F0
:1053900000004CFFFFFFFFFFFFA200000000000025
:1053A00000000026ADFFFEC95000000000000440D0
:1053B00000000000000000000000000000000004E9
:1053C000FF8000000000000000000000000000005E
:1053D00000EFFFC10000000000000000000000001E
:1053E000000008FFFFE300000000000000000000D4
:1053F0000000000005FFFFF7000026ADFFEDB7300D
:1054000000000000000002DFFFFA16DFFFFFFFFFD1
:10541000FFD700000000000000AFFFFFFFFFFFBA52
:10542000BEFFFFFE600000000000007FFFFFFFC521
:10543000000003BFFFFFB10000000000003EFFFFBF
:10544000D0000000007FFFFFE20000000000001B12
:10545000FFFFC106BA50007FFFFFE200000000001E
:105460000008FFFFE47FFFC100BFFFFFD100000085
:10547000AD200004FFFFFCFFFFC003FFFFFFB000F3
:10548000005FFF500002DFFFFFFFFF500EFFFFFF36
:1054900050000EFFFF900000AFFFFFFFFA00BFFFBC
:1054A000FFFE0002FFFFFFC200006FFFFFFFB00A18
:1054B000FFFFFFF2000EFFFFFFC000003EFFFFFAFC
:1054C00000CFFFFFFE00005FFFFFFF0000001BFF9B
:1054D000FFD20EFFFFFF500000BFFFFFF4000000EF
:1054E00007FFFFF8FFFFFF90000000DFFFFFC00095
:1054F000000004EFFFFFFFFFC000000002EFFFFF0E
:105500008000000001CFFFFFFFE10000000002DF8C
:10551000FFFF70000000009FFFFFE200000000009E
:1055200001BFFFFFC4000000005FFFFF600000003C
:105530000000006EFFFFFEBAB500002DFFFFA000C7
:10554000000000000007DFFFFFFFF800000AFFFF78
:10555000D20000000000000037BDEFFDB4000007DE
:10556000FFFFF50000000000000000000000000048
:105570000003EFFFF8000000000000000000000042
:1055800000000001CFFFE00000000000000000006C
:105590000000000000008FF4000000000000000088
:1055A00000000000000000004400000000000000B7
:1055B0000004871000000000000000000000000050
:1055C0000005FFFD000000000000000000000000DA
:1055D0000001EFFFF70000000000000000000000E5
:1055E00000008FFFFFF1000000000000000000003D
:1055F00000002FFFFFFFA0000000000000000000DF
:1056000000000BFFFFFFFF30000000000000000063
:10561000000004FFFFFFFFFC00000000000000008E
:10562000000000DFFFFFFFFFF500000000000000AA
:105630000000006FFFFFFFFFFFE000000000000020
:105640000000001EFFFFFFFFFFFF800000000000C2
:1056500000000009FFFF80001EFFFF100000000097
:1056600000000002FFFFF60000EFFFFA000000005C
:1056700000000000BFFFFF70000FFFFFF3000000FD
:10568000000000004FFFFFF80000FFFFFFC0000018
:10569000000000000DFFFFFF80000FFFFFFF500024
:1056A0000000000007FFFFFFF90001FFFFFFFE0001
:1056B0000000000001FFFFFFFFA0002FFFFFFFF829
:1056C00000000000009FFFFFFFFB0003FFFFFFFF44
:1056D000F1000000002FFFFFFFFFD1006FFFFFFF71
:1056E000FFA00000000BFFFFFFFFFFFFFFFFFFFF1A
:1056F000FFFF30000005FFFFFFFFFFF501BFFFFFC9
:10570000FFFFFC000000DFFFFFFFFFF70000EFFFDF
:10571000FFFFFFF600007FFFFFFFFFFF40000CFFD1
:10572000FFFFFFFFE0001FFFFFFFFFFFF80001FF8B
:10573000FFFFFFFFFF8009FFFFFFFFFFFFF613CF13
:10574000FFFFFFFFFFFF10FFFFFFFFFFFFFFFFFF58
:10575000FFFFFFFFFFFFF70EFFFFFFFFFFFFFFFF52
:10576000FFFFFFFFFFFFFF607FFFFFFFFFFFFFFF68
:10577000FFFFFFFFFFFFFFE0004899999999999972
:10578000999999999999987100000000000000007A
:1057900000000006A2000000000000000000000061
:1057A000000FFE3000000000000000000000000FAD
:1057B000FFE300244444300000000002444FFFFE99
:1057C00030FFFFFFFB000000003FFFFFFFFFE3FF94
:1057D000FFFFFFA0000003FFFFFFFFFFFEFFFFFF33
:1057E000FFF900002EFFFFFFFFFFFDFFFFFFFFFFA0
:1057F0008001EFFFFFFFFFFFD1122226FFFFA01D58
:10580000FFFFD22FFFFD100000007FFB01DFFFFD37
:10581000100FFFD10000000008C00CFFFFE2000ED7
:10582000FD10000000000000BFFFFE20000481000A
:1058300000000000000AFFFFF3000000000000006D
:105840000000009FFFFF40000004810000000000F6
:1058500008FFFFF505E2000EFE20000000007FFFBC
:10586000FF604FFD100FFFE200122226FFFFF7033B
:10587000FFFFD22FFFFE20FFFFFFFFFF8001EFFFA2
:10588000FFFFFFFFE2FFFFFFFFF900002EFFFFFF1A
:10589000FFFFFDFFFFFFFFA0000003FFFFFFFFFF73
:1058A000FDFFFFFFFB000000003FFFFFFFFFE224C2
:1058B0004444300000000002444FFFFE200000007E
:1058C000000000000000000FFFE3000000000000E7
:1058D00000000000000FFE3000000000000000008B
:1058E00000000006A20000000000000007B2000057
:1058F000000000000000000008FFE20000000000BF
:105900000000000008FFFFE20000000000000000AF
:1059100008FFFFFFE20000000000000008FFFFFF9B
:10592000FFE200000000000008FFFFFFFFFFE200B1
:105930000000000008FFFFFA3FFFFFE20000000048
:1059400008FFFFFA003FFFFFE200000008FFFFFA38
:1059500000003FFFFFE2000008FFFFFA0000003FE9
:10596000FFFFE20008FFFFFA000000003FFFFFE238
:1059700006FFFFFA00000000003FFFFFE09FFFFA74
:105980000000000000003FFFFF11DFFA00000000F0
:105990000000003FFF6001A80000000000000000C0
:1059A0003B500001A800000000000000003B600127
:1059B000DFFA000000000000003FFF609FFFFA00D8
:1059C00000000000003FFFFF16FFFFFA000000008C
:1059D000003FFFFFD008FFFFFA000000003FFFFF7D
:1059E000E20008FFFFFA0000003FFFFFE2000008AE
:1059F000FFFFFA00003FFFFFE200000008FFFFFA90
:105A0000003FFFFFE20000000008FFFFFA3FFFFF3A
:105A1000E2000000000008FFFFFFFFFFE2000000BF
:105A200000000008FFFFFFFFE20000000000000090
:105A300008FFFFFFE2000000000000000008FFFF79
:105A4000E200000000000000000008FFE20000008B
:105A50000000000000000006A2000000000000009E
:105A600000004200000000000000000000000000F4
:105A70000000009FF4000000000000000000000093
:105A8000000000009FFFF400005777777777777763
:105A900060000000009FFFFFF4004FFFFFFFFFFFCB
:105AA000FFFF700000009FFFFFFFF402FFFFFFFFFA
:105AB000FFFFFFF90000009FFFFFFFFFF404FFFF5F
:105AC000FFFFFFFFFF9000009FFFFFFFEFFFF400CD
:105AD0000000000000EFF900000FFFF4EFF99FFF56
